{
  "contractName": "Greeter",
  "abi": [
    {
      "anonymous": false,
      "inputs": [
        {
          "indexed": true,
          "internalType": "address",
          "name": "previousOwner",
          "type": "address"
        },
        {
          "indexed": true,
          "internalType": "address",
          "name": "newOwner",
          "type": "address"
        }
      ],
      "name": "OwnershipTransferred",
      "type": "event"
    },
    {
      "inputs": [],
      "name": "renounceOwnership",
      "outputs": [],
      "stateMutability": "nonpayable",
      "type": "function"
    },
    {
      "inputs": [
        {
          "internalType": "address",
          "name": "newOwner",
          "type": "address"
        }
      ],
      "name": "transferOwnership",
      "outputs": [],
      "stateMutability": "nonpayable",
      "type": "function"
    },
    {
      "inputs": [],
      "name": "greet",
      "outputs": [
        {
          "internalType": "string",
          "name": "",
          "type": "string"
        }
      ],
      "stateMutability": "view",
      "type": "function"
    },
    {
      "inputs": [
        {
          "internalType": "string",
          "name": "greeting",
          "type": "string"
        }
      ],
      "name": "setGreeting",
      "outputs": [],
      "stateMutability": "nonpayable",
      "type": "function"
    },
    {
      "inputs": [],
      "name": "owner",
      "outputs": [
        {
          "internalType": "address",
          "name": "",
          "type": "address"
        }
      ],
      "stateMutability": "view",
      "type": "function"
    }
  ],
  "bytecode": "0x60806040526040518060400160405280600d81526020017f48656c6c6f2c20576f726c642100000000000000000000000000000000000000815250600190816200004a9190620003aa565b5034801562000057575f80fd5b50620000786200006c6200007e60201b60201c565b6200008560201b60201c565b6200048e565b5f33905090565b5f805f9054906101000a900473ffffffffffffffffffffffffffffffffffffffff169050815f806101000a81548173ffffffffffffffffffffffffffffffffffffffff021916908373ffffffffffffffffffffffffffffffffffffffff1602179055508173ffffffffffffffffffffffffffffffffffffffff168173ffffffffffffffffffffffffffffffffffffffff167f8be0079c531659141344cd1fd0a4f28419497f9722a3daafe3b4186f6b6457e060405160405180910390a35050565b5f81519050919050565b7f4e487b71000000000000000000000000000000000000000000000000000000005f52604160045260245ffd5b7f4e487b71000000000000000000000000000000000000000000000000000000005f52602260045260245ffd5b5f6002820490506001821680620001c257607f821691505b602082108103620001d857620001d76200017d565b5b50919050565b5f819050815f5260205f209050919050565b5f6020601f8301049050919050565b5f82821b905092915050565b5f600883026200023c7fffffffffffffffffffffffffffffffffffffffffffffffffffffffffffffffff82620001ff565b620002488683620001ff565b95508019841693508086168417925050509392505050565b5f819050919050565b5f819050919050565b5f620002926200028c620002868462000260565b62000269565b62000260565b9050919050565b5f819050919050565b620002ad8362000272565b620002c5620002bc8262000299565b8484546200020b565b825550505050565b5f90565b620002db620002cd565b620002e8818484620002a2565b505050565b5b818110156200030f57620003035f82620002d1565b600181019050620002ee565b5050565b601f8211156200035e576200032881620001de565b6200033384620001f0565b8101602085101562000343578190505b6200035b6200035285620001f0565b830182620002ed565b50505b505050565b5f82821c905092915050565b5f620003805f198460080262000363565b1980831691505092915050565b5f6200039a83836200036f565b9150826002028217905092915050565b620003b58262000146565b67ffffffffffffffff811115620003d157620003d062000150565b5b620003dd8254620001aa565b620003ea82828562000313565b5f60209050601f83116001811462000420575f84156200040b578287015190505b6200041785826200038d565b86555062000486565b601f1984166200043086620001de565b5f5b82811015620004595784890151825560018201915060208501945060208101905062000432565b8683101562000479578489015162000475601f8916826200036f565b8355505b6001600288020188555050505b505050505050565b6109be806200049c5f395ff3fe608060405234801561000f575f80fd5b5060043610610055575f3560e01c8063715018a6146100595780638da5cb5b14610063578063a413686214610081578063cfae32171461009d578063f2fde38b146100bb575b5f80fd5b6100616100d7565b005b61006b6100ea565b60405161007891906103bf565b60405180910390f35b61009b60048036038101906100969190610441565b610112565b005b6100a5610128565b6040516100b29190610516565b60405180910390f35b6100d560048036038101906100d09190610560565b6101b8565b005b6100df61023a565b6100e85f6102b8565b565b5f60025f9054906101000a900473ffffffffffffffffffffffffffffffffffffffff16905090565b8181600191826101239291906107c5565b505050565b606060018054610137906105ef565b80601f0160208091040260200160405190810160405280929190818152602001828054610163906105ef565b80156101ae5780601f10610185576101008083540402835291602001916101ae565b820191905f5260205f20905b81548152906001019060200180831161019157829003601f168201915b5050505050905090565b6101c061023a565b5f73ffffffffffffffffffffffffffffffffffffffff168173ffffffffffffffffffffffffffffffffffffffff160361022e576040517f08c379a000000000000000000000000000000000000000000000000000000000815260040161022590610902565b60405180910390fd5b610237816102b8565b50565b610242610379565b73ffffffffffffffffffffffffffffffffffffffff166102606100ea565b73ffffffffffffffffffffffffffffffffffffffff16146102b6576040517f08c379a00000000000000000000000000000000000000000000000000000000081526004016102ad9061096a565b60405180910390fd5b565b5f805f9054906101000a900473ffffffffffffffffffffffffffffffffffffffff169050815f806101000a81548173ffffffffffffffffffffffffffffffffffffffff021916908373ffffffffffffffffffffffffffffffffffffffff1602179055508173ffffffffffffffffffffffffffffffffffffffff168173ffffffffffffffffffffffffffffffffffffffff167f8be0079c531659141344cd1fd0a4f28419497f9722a3daafe3b4186f6b6457e060405160405180910390a35050565b5f33905090565b5f73ffffffffffffffffffffffffffffffffffffffff82169050919050565b5f6103a982610380565b9050919050565b6103b98161039f565b82525050565b5f6020820190506103d25f8301846103b0565b92915050565b5f80fd5b5f80fd5b5f80fd5b5f80fd5b5f80fd5b5f8083601f840112610401576104006103e0565b5b8235905067ffffffffffffffff81111561041e5761041d6103e4565b5b60208301915083600182028301111561043a576104396103e8565b5b9250929050565b5f8060208385031215610457576104566103d8565b5b5f83013567ffffffffffffffff811115610474576104736103dc565b5b610480858286016103ec565b92509250509250929050565b5f81519050919050565b5f82825260208201905092915050565b5f5b838110156104c35780820151818401526020810190506104a8565b5f8484015250505050565b5f601f19601f8301169050919050565b5f6104e88261048c565b6104f28185610496565b93506105028185602086016104a6565b61050b816104ce565b840191505092915050565b5f6020820190508181035f83015261052e81846104de565b905092915050565b61053f8161039f565b8114610549575f80fd5b50565b5f8135905061055a81610536565b92915050565b5f60208284031215610575576105746103d8565b5b5f6105828482850161054c565b91505092915050565b5f82905092915050565b7f4e487b71000000000000000000000000000000000000000000000000000000005f52604160045260245ffd5b7f4e487b71000000000000000000000000000000000000000000000000000000005f52602260045260245ffd5b5f600282049050600182168061060657607f821691505b602082108103610619576106186105c2565b5b50919050565b5f819050815f5260205f209050919050565b5f6020601f8301049050919050565b5f82821b905092915050565b5f6008830261067b7fffffffffffffffffffffffffffffffffffffffffffffffffffffffffffffffff82610640565b6106858683610640565b95508019841693508086168417925050509392505050565b5f819050919050565b5f819050919050565b5f6106c96106c46106bf8461069d565b6106a6565b61069d565b9050919050565b5f819050919050565b6106e2836106af565b6106f66106ee826106d0565b84845461064c565b825550505050565b5f90565b61070a6106fe565b6107158184846106d9565b505050565b5b818110156107385761072d5f82610702565b60018101905061071b565b5050565b601f82111561077d5761074e8161061f565b61075784610631565b81016020851015610766578190505b61077a61077285610631565b83018261071a565b50505b505050565b5f82821c905092915050565b5f61079d5f1984600802610782565b1980831691505092915050565b5f6107b5838361078e565b9150826002028217905092915050565b6107cf838361058b565b67ffffffffffffffff8111156107e8576107e7610595565b5b6107f282546105ef565b6107fd82828561073c565b5f601f83116001811461082a575f8415610818578287013590505b61082285826107aa565b865550610889565b601f1984166108388661061f565b5f5b8281101561085f5784890135825560018201915060208501945060208101905061083a565b8683101561087c5784890135610878601f89168261078e565b8355505b6001600288020188555050505b50505050505050565b7f4f776e61626c653a206e6577206f776e657220697320746865207a65726f20615f8201527f6464726573730000000000000000000000000000000000000000000000000000602082015250565b5f6108ec602683610496565b91506108f782610892565b604082019050919050565b5f6020820190508181035f830152610919816108e0565b9050919050565b7f4f776e61626c653a2063616c6c6572206973206e6f7420746865206f776e65725f82015250565b5f610954602083610496565b915061095f82610920565b602082019050919050565b5f6020820190508181035f83015261098181610948565b905091905056fea264697066735822122062c157f2bff11bfb119c4b2335153f6a18fad536cb8f916953439f5c4e5c90ea64736f6c63430008150033",
  "immutableReferences": {},
  "source": "// SPDX-License-Identifier: MIT \r\npragma solidity >= 0.8.21;\r\n\r\nimport \"openzeppelin-solidity/contracts/access/Ownable.sol\";\r\n\r\ncontract Greeter is Ownable{\r\n    string private _greeting = \"Hello, World!\";\r\n    address private _owner;\r\n\r\n    function greet() external view returns (string memory) {\r\n        return _greeting;\r\n    }\r\n  function setGreeting(string calldata greeting) external {\r\n    _greeting = greeting;\r\n  }\r\n\r\n  function owner() public view override returns(address) {\r\n    return _owner;\r\n  }\r\n\r\n}",
  "sourcePath": "E:\\greeter\\contracts\\Greeter.sol",
  "compiler": {
    "name": "solc",
    "version": "0.8.21+commit.d9974bed.Emscripten.clang"
  },
  "schemaVersion": "3.4.16",
  "updatedAt": "2023-10-23T01:29:52.350Z",
  "devdoc": {
    "kind": "dev",
    "methods": {
      "owner()": {
        "details": "Returns the address of the current owner."
      },
      "renounceOwnership()": {
        "details": "Leaves the contract without owner. It will not be possible to call `onlyOwner` functions anymore. Can only be called by the current owner. NOTE: Renouncing ownership will leave the contract without an owner, thereby removing any functionality that is only available to the owner."
      },
      "transferOwnership(address)": {
        "details": "Transfers ownership of the contract to a new account (`newOwner`). Can only be called by the current owner."
      }
    },
    "version": 1
  },
  "userdoc": {
    "kind": "user",
    "methods": {},
    "version": 1
  }
}