{
  "contractName": "Greeter",
  "abi": [
    {
      "anonymous": false,
      "inputs": [
        {
          "indexed": true,
          "internalType": "address",
          "name": "previousOwner",
          "type": "address"
        },
        {
          "indexed": true,
          "internalType": "address",
          "name": "newOwner",
          "type": "address"
        }
      ],
      "name": "OwnershipTransferred",
      "type": "event"
    },
    {
      "inputs": [],
      "name": "owner",
      "outputs": [
        {
          "internalType": "address",
          "name": "",
          "type": "address"
        }
      ],
      "stateMutability": "view",
      "type": "function"
    },
    {
      "inputs": [],
      "name": "renounceOwnership",
      "outputs": [],
      "stateMutability": "nonpayable",
      "type": "function"
    },
    {
      "inputs": [
        {
          "internalType": "address",
          "name": "newOwner",
          "type": "address"
        }
      ],
      "name": "transferOwnership",
      "outputs": [],
      "stateMutability": "nonpayable",
      "type": "function"
    },
    {
      "inputs": [],
      "name": "greet",
      "outputs": [
        {
          "internalType": "string",
          "name": "",
          "type": "string"
        }
      ],
      "stateMutability": "view",
      "type": "function"
    },
    {
      "inputs": [
        {
          "internalType": "string",
          "name": "greeting",
          "type": "string"
        }
      ],
      "name": "setGreeting",
      "outputs": [],
      "stateMutability": "nonpayable",
      "type": "function"
    }
  ],
  "bytecode": "0x60806040526040518060400160405280600d81526020017f48656c6c6f2c20576f726c6421000000000000000000000000000000000000008152506001908051906020019061004f92919061014a565b5034801561005c57600080fd5b5061007961006e61007e60201b60201c565b61008660201b60201c565b61024d565b600033905090565b60008060009054906101000a900473ffffffffffffffffffffffffffffffffffffffff169050816000806101000a81548173ffffffffffffffffffffffffffffffffffffffff021916908373ffffffffffffffffffffffffffffffffffffffff1602179055508173ffffffffffffffffffffffffffffffffffffffff168173ffffffffffffffffffffffffffffffffffffffff167f8be0079c531659141344cd1fd0a4f28419497f9722a3daafe3b4186f6b6457e060405160405180910390a35050565b8280546101569061021c565b90600052602060002090601f01602090048101928261017857600085556101bf565b82601f1061019157805160ff19168380011785556101bf565b828001600101855582156101bf579182015b828111156101be5782518255916020019190600101906101a3565b5b5090506101cc91906101d0565b5090565b5b808211156101e95760008160009055506001016101d1565b5090565b7f4e487b7100000000000000000000000000000000000000000000000000000000600052602260045260246000fd5b6000600282049050600182168061023457607f821691505b602082108103610247576102466101ed565b5b50919050565b6107f78061025c6000396000f3fe608060405234801561001057600080fd5b50600436106100575760003560e01c8063715018a61461005c5780638da5cb5b14610066578063a413686214610084578063cfae3217146100a0578063f2fde38b146100be575b600080fd5b6100646100da565b005b61006e6100ee565b60405161007b9190610478565b60405180910390f35b61009e60048036038101906100999190610502565b610117565b005b6100a8610135565b6040516100b591906105e8565b60405180910390f35b6100d860048036038101906100d39190610636565b6101c7565b005b6100e261024a565b6100ec60006102c8565b565b60008060009054906101000a900473ffffffffffffffffffffffffffffffffffffffff16905090565b61011f61024a565b818160019190610130929190610394565b505050565b60606001805461014490610692565b80601f016020809104026020016040519081016040528092919081815260200182805461017090610692565b80156101bd5780601f10610192576101008083540402835291602001916101bd565b820191906000526020600020905b8154815290600101906020018083116101a057829003601f168201915b5050505050905090565b6101cf61024a565b600073ffffffffffffffffffffffffffffffffffffffff168173ffffffffffffffffffffffffffffffffffffffff160361023e576040517f08c379a000000000000000000000000000000000000000000000000000000000815260040161023590610735565b60405180910390fd5b610247816102c8565b50565b61025261038c565b73ffffffffffffffffffffffffffffffffffffffff166102706100ee565b73ffffffffffffffffffffffffffffffffffffffff16146102c6576040517f08c379a00000000000000000000000000000000000000000000000000000000081526004016102bd906107a1565b60405180910390fd5b565b60008060009054906101000a900473ffffffffffffffffffffffffffffffffffffffff169050816000806101000a81548173ffffffffffffffffffffffffffffffffffffffff021916908373ffffffffffffffffffffffffffffffffffffffff1602179055508173ffffffffffffffffffffffffffffffffffffffff168173ffffffffffffffffffffffffffffffffffffffff167f8be0079c531659141344cd1fd0a4f28419497f9722a3daafe3b4186f6b6457e060405160405180910390a35050565b600033905090565b8280546103a090610692565b90600052602060002090601f0160209004810192826103c25760008555610409565b82601f106103db57803560ff1916838001178555610409565b82800160010185558215610409579182015b828111156104085782358255916020019190600101906103ed565b5b509050610416919061041a565b5090565b5b8082111561043357600081600090555060010161041b565b5090565b600073ffffffffffffffffffffffffffffffffffffffff82169050919050565b600061046282610437565b9050919050565b61047281610457565b82525050565b600060208201905061048d6000830184610469565b92915050565b600080fd5b600080fd5b600080fd5b600080fd5b600080fd5b60008083601f8401126104c2576104c161049d565b5b8235905067ffffffffffffffff8111156104df576104de6104a2565b5b6020830191508360018202830111156104fb576104fa6104a7565b5b9250929050565b6000806020838503121561051957610518610493565b5b600083013567ffffffffffffffff81111561053757610536610498565b5b610543858286016104ac565b92509250509250929050565b600081519050919050565b600082825260208201905092915050565b60005b8381101561058957808201518184015260208101905061056e565b83811115610598576000848401525b50505050565b6000601f19601f8301169050919050565b60006105ba8261054f565b6105c4818561055a565b93506105d481856020860161056b565b6105dd8161059e565b840191505092915050565b6000602082019050818103600083015261060281846105af565b905092915050565b61061381610457565b811461061e57600080fd5b50565b6000813590506106308161060a565b92915050565b60006020828403121561064c5761064b610493565b5b600061065a84828501610621565b91505092915050565b7f4e487b7100000000000000000000000000000000000000000000000000000000600052602260045260246000fd5b600060028204905060018216806106aa57607f821691505b6020821081036106bd576106bc610663565b5b50919050565b7f4f776e61626c653a206e6577206f776e657220697320746865207a65726f206160008201527f6464726573730000000000000000000000000000000000000000000000000000602082015250565b600061071f60268361055a565b915061072a826106c3565b604082019050919050565b6000602082019050818103600083015261074e81610712565b9050919050565b7f4f776e61626c653a2063616c6c6572206973206e6f7420746865206f776e6572600082015250565b600061078b60208361055a565b915061079682610755565b602082019050919050565b600060208201905081810360008301526107ba8161077e565b905091905056fea2646970667358221220a80a8674b17d3a9c94fc5f2d95ad6f8c872c10abb921e5ceb7d1a865daf9843764736f6c634300080d0033",
  "immutableReferences": {},
  "source": "// SPDX-License-Identifier: MIT \r\npragma solidity >= 0.8.13;\r\n\r\nimport \"openzeppelin-solidity/contracts/access/Ownable.sol\";\r\n\r\ncontract Greeter is Ownable {\r\n  string private _greeting = \"Hello, World!\";\r\n\r\n  function greet() external view returns(string memory) {\r\n    return _greeting;\r\n  }\r\n\r\n  function setGreeting(string calldata greeting) external onlyOwner {\r\n    _greeting = greeting;\r\n  }\r\n}",
  "sourcePath": "E:\\greeter\\contracts\\Greeter.sol",
  "compiler": {
    "name": "solc",
    "version": "0.8.13+commit.abaa5c0e.Emscripten.clang"
  },
  "schemaVersion": "3.4.16",
  "updatedAt": "2023-10-23T04:58:44.508Z",
  "devdoc": {
    "kind": "dev",
    "methods": {
      "owner()": {
        "details": "Returns the address of the current owner."
      },
      "renounceOwnership()": {
        "details": "Leaves the contract without owner. It will not be possible to call `onlyOwner` functions anymore. Can only be called by the current owner. NOTE: Renouncing ownership will leave the contract without an owner, thereby removing any functionality that is only available to the owner."
      },
      "transferOwnership(address)": {
        "details": "Transfers ownership of the contract to a new account (`newOwner`). Can only be called by the current owner."
      }
    },
    "version": 1
  },
  "userdoc": {
    "kind": "user",
    "methods": {},
    "version": 1
  }
}